:02000000102BC3
:06000600000000000800EC
:0E000C00213083120313FD00FD0B0A280800AB
:10001A000F3083120313FC004730FD00FD0B132839
:0A002A00FC0B132800000000080082
:1000340083160313BB1B21288312881323288312DE
:10004400881783163B1B2928831208132B28831235
:1000540008178316BB1A3128831288123328831297
:10006400881683163B1A3928831208123B288312F8
:10007400081683163418412883120915432883125D
:1000840009118914032089108316BB194C28831283
:1000940088134E288312881783163B195428831219
:1000A40008135628831208178316BB185C2883127A
:1000B40088125E288312881683163B1864288312DC
:1000C4000812662883120816831634186C288312C3
:1000D40009156E28831209118914032089108316C7
:0C00E400341C76280D2077280620080028
:1000F0008316031334103A08BB001A2083163414F5
:020100000800F5
:08010200FA1FF213003008009F
:10010A007B15FB1F8F280130F300F201F101F0018A
:08011A00FA0DF20CFF300800A1
:0E012200F201F101F001F801F30100300800D4
:100130000E3083120313FD00FD0B9C280000080005
:10014000FB14FB1FAA28FF30F300F200F100F000BF
:08015000FA0DF20CFF3008006B
:10015800BE28803083160313B600D128C030B600FD
:10016800D1289430B600D128D430B600D1288030B8
:10017800B600D128831603133608013A0319AD28AF
:100188003608023A0319B2283608033A0319B52883
:100198003608043A0319B828BB283703F000360894
:1001A800F0077008B6007008BB001A2083163410D8
:1001B800B90139083807840000080319EB28390801
:1001C800380784000008BA007820B90ADD283414FA
:0201D80008001D
:1001DA00A0017208031D02297108F2007008F100DB
:1001EA00F001A0157208031D02297108F200F1013D
:1001FA00A01120167208031910292008F302031D02
:10020A00031C14290310F21B1829F00DF10DF20D2D
:10021A00F30B082914290130FC0091201B29023014
:0E022A00FC0085201B290430FC008120080008
:100238007B14FB1F2729F201FA1FFF30F200F1009F
:0A024800F000FA0DF20CFF30080080
:0E0252008316031331088A003008820008006A
:1002600083120313FB017308031D77080319872901
:1002700072087606FA007708F3077E30031C4429DB
:10028000F30203188A294729F302031C8D297208F7
:10029000F8007108FC007008FD00F817F61703104D
:1002A000F201F101F0011830A0007D1C61297408F1
:1002B000F00775080318750FF10776080318760F15
:1002C000F207F20CF10CF00CF80CFC0CFD0C031016
:1002D000A00B5529F21B7129F80DF00DF10DF20D4F
:1002E000F3037B1B701C8329F81F8329F00A031971
:1002F000F10A0319F20A031D8329F20CF10CF00C28
:10030000F30A03198A29FA1FF21300308F290130EA
:1003100091208F290230A0208F29043085200000F1
:020320000800D3
:1003220083120313F801F9011030FC00710DF80D6E
:10033200F90D7408F8027508031C750FF902031809
:10034200A9297408F80775080318750FF90703102F
:0A035200F00DF10DFC0B97290800D7
:10035C00831203137008F8007108F000F101F20128
:10036C00F301FB01FC019630F300FA017008F10077
:0C037C007808F000F801F201ED20080004
:10038800831203139F01C0309F044C09F0007008CA
:1003980083169F051F179F173508F000F00D701082
:1003A800F00D7010F00D7010700883129F041F1468
:1003B80098201F151F1DE2290000DE291F101E08A6
:1003C800F100F00183161E08F0040030F104080063
:1003D800013083160313BB001A200C308316BB00B0
:1003E8001A2001308316B6000130B7002130B8005A
:1003F800AC200230B6000130B7003130B800AC2074
:100408000B30FB002630FC005D30FD00FD0B0A2A96
:10041800FC0B0A2AFB0B0A2A000000000130BB0073
:100428001A2001308316B6000130B7004D30B800ED
:10043800AC200230B6000130B7005E30B800AC2006
:100448000B30FB002630FC005D30FD00FD0B2A2A36
:10045800FC0B2A2AFB0B2A2A000000000130BB00F3
:100468001A2001308316B6000130B7006430B80096
:10047800AC200230B6000130B700A030B800AC2084
:100488000B30FB002630FC005D30FD00FD0B4A2AD6
:10049800FC0B4A2AFB0B4A2A000000000130BB0073
:0404A8001A2008000E
:1004AC0029218A110A128000840AB00A0319B10AA0
:0804BC00F003031D562A08009D
:1004C40083120313FB01FC01FA0173080319A12A27
:1004D400F2178E30F302F31B722A0319722AA42A2C
:1004E400F309F30A08307302031C872AF300F10DA1
:1004F4007208F100F20108307302031C872AF10D1F
:10050400F1017308031D03108F2A730803198F2A3E
:100514000310F20CF10CF30B8A2A7B1B711C992A31
:10052400031C992AF10A0319F20AF21BB02AFA1FD2
:10053400B32AF209F109F10A0319F20AB32AF20102
:10054400F101B32A7B14FB1FB62AF201FA1FB62A63
:10055400FF30F200F100FA0DF20CB62A0130FC0073
:10056400B82A0030FC00B82AFF30FC00FC0803194C
:0E057400BC2A1C217108F0007208F10008007A
:10058200831603138910091108128812081388139D
:1005920083128910091188130813881208120D207A
:1005A2000D200D20881608168914032089100D20AD
:1005B2008914032089100D208914032089100D202D
:1005C20008128914032089100D2089140320891030
:1005D200881288178914032089100D2088130816A1
:1005E20089140320891008128914032089100D2010
:1005F20089140320891008168914032089100D20FC
:1006020008128914032089108817081788160816FB
:0E0612008914032089100D208316341408006B
:100620003624C122EC2101308316B6000330B70016
:100630003730B800AC200F3085008316B501C421D7
:10064000AE21B530F400A630F5007930F6007D30EB
:10065000F7003021622270088316B2007108B300DF
:100660007108003C031D362B7008633C03183C2BBB
:1006700031308312C4003F2B83122030C4000A3073
:10068000F4000030F50083163208F0003308F10062
:1006900091210A30F4000030F50091217808F00033
:1006A0007908F10030307007C5000A30F4000030DE
:1006B000F50083163208F0003308F1009121780824
:1006C000F0007908F10030307007C600DF30C90053
:1006D00002308316B6000530B7004430B800AC20B5
:1006E00000303302031D762B143032020318852BA1
:1006F0004030831285001A30FC00F830FD00FD0BFD
:100700007F2BFC0B7F2B0000C22B83163308003C91
:10071000031D8C2B3208143C0318A32B003033022A
:10072000031D942B213032020318A32B2030831297
:1007300085001A30FC00F830FD00FD0B9D2BFC0BF2
:100740009D2B0000C22B83163308003C031DAA2BEF
:100750003208213C0318B92B1030831285001A305F
:10076000FC00F830FD00FD0BB32BFC0BB32B00009D
:10077000C22B1A30FC00F830FD00FD0BBD2BFC0B2A
:10078000BD2B00000230FB000430FC00BA30FD003D
:10079000FD0BC82BFC0BC82BFB0BC82B00001D2B23
:0207A000D02B5C
:10086C0021308400433083120313F000D6308316FA
:10087C00B0000330B1005622A030840010300313B6
:10088C00F00019308316B0000430B10056226430E9
:10089C0084000C300313F00029308316B0000430B0
:0608AC00B1005622080015
:1007AC004D346F34683461346D346D346534643475
:1007BC00203441346C3441346A346D34693400343F
:0C07CC00393431343134313438340034E5
:1007D800543465346D34703465347234613474342F
:0A07E8007534723465343A3400347D
:1007F2002034303430342E34303420344334003416
:020802000F34B1
:100804004D346F34683461346D346D346134643420
:10081400203441346C345334683461346D346D3471
:0208240000349E
:0C08260038343734333434343234003486
:1008320041346E3474346F346E3469346F347334CB
:1008420020344E346134733473346534723400347A
:100852002034203420344D346134643465342034FF
:08086200423479343A340034C9
:02400E004A2F37
:00000001FF
